:02000004A0005A
:10000000978101009381C12717010200130181FF2D
:10001000EF20904F130E05000F100000730000003A
:10002000EF00001E6F00000013000000130000002E
:100030001300000013000000130000001300000074
:100040001300000013000000130000001300000064
:100050001300000013000000130000001300000054
:100060001300000013000000130000001300000044
:100070001300000013000000130000001300000034
:100080001300000013000000130000001300000024
:100090001300000013000000130000001300000014
:1000A0001300000013000000130000001300000004
:1000B00013000000130000001300000013000000F4
:1000C00013000000130000001300000013000000E4
:1000D00013000000130000001300000013000000D4
:1000E00013000000130000001300000013000000C4
:1000F00013000000130000001300000013000000B4
:1001000013000000130000001300000013000000A3
:100110001300000013000000130000001300000093
:100120001300000013000000130000001300000083
:100130001300000013000000130000001300000073
:100140001300000013000000130000001300000063
:100150001300000013000000130000001300000053
:100160001300000013000000130000001300000043
:100170001300000013000000130000001300000033
:100180001300000013000000130000001300000023
:100190001300000013000000130000001300000013
:1001A0001300000013000000130000001300000003
:1001B00013000000130000001300000013000000F3
:1001C00013000000130000001300000013000000E3
:1001D00013000000130000001300000013000000D3
:1001E00013000000130000001300000013000000C3
:1001F00013000000130000001300000013000000B3
:10020000130101EF232211002324210023263100B2
:1002100023284100232A5100232C6100232E710042
:1002200023208102232291022324A1022326B1024A
:100230002328C102232AD102232CE102232EF1021A
:10024000232001052322110523242105232631051E
:1002500023284105232A5105232C6105232E7105EE
:1002600023208107232291072324A1072326B107F6
:100270002328C107232AD107232CE107232EF107C6
:1002800073252034F325103413060100EF10902954
:100290007310153483204100032181008321C100A4
:1002A0000322010183224101032381018323C10130
:1002B0000324010283244102032581028325C10214
:1002C0000326010383264103032781038327C103F8
:1002D0000328010483284104032981048329C104DC
:1002E000032A0105832A4105032B8105832BC105C0
:1002F000032C0106832C4106032D8106832DC106A4
:10030000032E0107832E4107032F8107832FC10787
:1003100013010111730020301307F6FF6302060278
:10032000B387E5003305E5009385F5FF03C70700B4
:100330001305F5FF9387F7FFA300E500E398B7FEE9
:1003400067800000000000000000000000000000C6
:10035000000000000000000000000000000000009D
:10036000000000000000000000000000000000008D
:10037000000000000000000000000000000000007D
:10038000000000000000000000000000000000006D
:10039000000000000000000000000000000000005D
:1003A000000000000000000000000000000000004D
:1003B000000000000000000000000000000000003D
:1003C000000000000000000000000000000000002D
:0803D000000000000000000025
:101000001307C5028327070093F70701E39C07FE38
:101010002308B50267800000130101FC232C810224
:1010200023282103232631032324410323225103B0
:1010300023206103232E7101232E1102232A910202
:10104000232C8101232A91019309050013890500AE
:1010500013040600938A0600130B0003130A900082
:10106000930B80056F008001930750026388F5049D
:1010700013850900E7000900138404008345040078
:1010800093041400E39205FE8320C103032481032B
:1010900083244103032901038329C102032A810216
:1010A000832A4102032B0102832BC101032C8101FE
:1010B000832C4101130101046780000003471400E1
:1010C0006300670D130607FD9377F60F13042400E2
:1010D000130500006372FA0C9307000093063006B4
:1010E000630CD74663F4E608930630076308D73CE1
:1010F00063F2E610930650076312D72283A60A0014
:1011000093844A0013071000637EDA001316270049
:101110003307E6001317170033D6E602E368CAFE6A
:10112000630E07441308410093080000130EA0004B
:10113000B3D5E6021306000313031800B3F6E60264
:101140003357C70363940800635EB0126354BA0058
:10115000130670053306B6002300C80093881800F4
:10116000630C0712130803006FF09FFC93065002F4
:10117000630CD73C6308771BE30807F06FF01FF0A0
:10118000034724001305100013043400130607FD61
:101190009377F60FE362FAF4930700001308500008
:1011A0009308A0009306F7F99375F60F93F6F60FE0
:1011B000637CBA001306F7FB1376F60F6366D8025A
:1011C000130697FAE3CCC8F0130414009396270093
:1011D0000347F4FFB387F60093971700B387C70060
:1011E000130607FD6FF01FFCE36AC8EE130697FCB9
:1011F0006FF05FFD93064006E312D7E803A60A00EE
:1012000093054100938A4A00635A06001307D002EF
:101210003306C0402302E100930551001308060085
:1012200013071000635ECA00931627003387E60099
:1012300013171700B356E602E368DAFE63040734B7
:1012400093080000130EA0003356E8029306000333
:10125000138315003378E8023357C70363940800FB
:101260006352C0146354CA0093067005B386C60067
:101270002380D500938818006300071493050300AA
:101280006FF09FFC13030800E31E07EC13860503B1
:10129000130318002300C80023000300930C00026E
:1012A00063040500930C0003034C410063060C2EFD
:1012B00063840704130751006F00C0009387060082
:1012C000638C0602130717000346F7FF9386F7FFA8
:1012D000E31606FE938AE7FF6380060293850C00FF
:1012E00013850900938AFAFFE700090093871A0023
:1012F000E346F0FE63000C02930A510093050C00D4
:1013000013850900938A1A00E700090003CCFAFF4D
:10131000E3160CFE938A04006FF05FD693068007F5
:10132000E31ED7D483A50A009306F000938A4A00EF
:1013300063FEB624930610001308F000939646004F
:1013400033D6D502E36CC8FE6388060E93084100CD
:10135000130300006F004003130800036358CA0022
:101360001308700363047701130870053306C8007F
:101370002380C80013881800130313006380060C31
:1013800033D6D50293080800B3F5D50293D64600AC
:10139000E31403FCE342C0FC638A061C13880800C4
:1013A0006FF01FFE13830500E31A07EC9306060394
:1013B000138315002380D50023000300130C0002C3
:1013C00063040500130C000383444100638E041C76
:1013D00063840704130751006F00C0009387060061
:1013E000638C0602130717000346F7FF9386F7FF87
:1013F000E31606FE938CE7FF6380060293050C005C
:1014000013850900938CFCFFE700090093871C00FB
:10141000E346F0FEE38404C6130C510093850400F8
:1014200013850900130C1C00E70009008344FCFF2E
:10143000E39604FE6FF09FC41308410023000800E8
:10144000130C000263040500130C000383444100E5
:101450006388041663840704130751006F00C000FB
:1014600093870600638C0602130717000346F7FFF5
:101470009386F7FFE31606FE938CE7FF6380060270
:1014800093050C0013850900938CFCFFE70009000D
:1014900093871C00E346F0FEE38204BE130C510068
:1014A0009385040013850900130C1C00E700090054
:1014B0008344FCFFE39604FE6FF05FBC03AC0A00BC
:1014C000938A4A0083450C0093041C006384050E34
:1014D00063860704138704006F00C000938706002B
:1014E000638E0602130717000346F7FF9386F7FF84
:1014F000E31606FE938CE7FF638206029305000263
:1015000013850900938CFCFFE700090093871C00FA
:10151000E346F0FE83450C00E38205B6138509001F
:1015200093841400E700090083C5F4FFE38805B441
:101530001385090093841400E700090083C5F4FFB4
:10154000E39E05FC6FF09FB39305500213850900DD
:10155000E70009006FF09FB283C50A0013850900F8
:10156000938A4A00E70009006FF05FB11306060393
:10157000138818002380C8006FF05FEC130341004C
:101580006FF09FD1138305006FF01FE393061000E7
:10159000138605006FF09FDB938A0400E38007AE9B
:1015A000938AF7FF6FF09FD3938CF7FFE39807E4DC
:1015B0006FF0DFAC938CF7FFE39207F46FF01FAC92
:1015C000938CF7FFE39E07EA6FF05FABB70701A0CC
:1015D00023A2B728B70701A023A0A728678000008F
:1015E000130101FC371E00A013034102232AF1025C
:1015F000930E0E00B70701A02322B1022324C102DB
:101600002326D1022328E1021306050023A2D729AD
:10161000371700E0B70701A09306030093050E00FB
:10162000371500E0232E1100232C0103232E110374
:101630002326610023A0E728EFF01F9E8320C1012D
:101640001301010467800000130101F9130E8105E5
:101650002324810423202105232E3103232C41033D
:101660002326110423229104232A510323286103F2
:10167000232671031303050013840500232CC104E2
:10168000232ED1042320E1062322F106232401077F
:10169000232611072328C101930900031309900091
:1016A000130A80056F008001930650026386D704F9
:1016B0002300F300130407001303130083470400FF
:1016C00013071400E39207FE230003008320C104E4
:1016D0000324810483244104032901048329C103D1
:1016E000032A8103832A4103032B0103832BC102B5
:1016F0001301010767800000834714006380370DE2
:10170000938607FD13F7F60F13042400130500005A
:10171000930400006372E90C13073006638EE746FA
:101720006374F70813073007638CE73C6372F710A4
:10173000130750076392E72203270E00130B4E0096
:1017400093071000637EE90093962700B387F600A5
:1017500093971700B356F702E368D9FE63800746F4
:101760009305410113080000930EA0003356F702C1
:1017700093060003938815003377F702B3D7D70396
:1017800063140800635EC0126354C90093067005B9
:10179000B386C6002380D50013081800638C071297
:1017A000938508006FF09FFC130750026380E73EAB
:1017B0006388471BE38A07F06FF05FF083472400DC
:1017C0001305100013043400938607FD13F7F60F7A
:1017D00093040000E362E9F4930550001308A000AD
:1017E0001387F7F913F6F60F1377F70F637CC90029
:1017F0009386F7FB93F6F60F63E6E502938697FA76
:10180000E34CD8F013041400139724008347F4FF2B
:10181000B304970093941400B384D400938607FD17
:101820006FF01FFCE3EAD5EE938697FC6FF05FFD47
:1018300013074006E394E7E883260E00130B4E00DF
:101840001306410163DA06009307D002B306D040C5
:10185000230AF10013065101938506009307100037
:10186000635ED90013972700B307F700939717001B
:1018700033D7F602E368E9FE638E073613080000EB
:10188000930EA000B3D6F5021307000393081600C9
:10189000B3F5F502B3D7D703631408006352D0142D
:1018A0006354D900130770053307D7002300E600FF
:1018B0001308180063800714138608006FF09FFC5C
:1018C00093880500E39E07EC9306060393881500B2
:1018D0002380D500238008009305000263040500DF
:1018E00093050003834A410163880A326386040436
:1018F000930751016F00C00093040700630E0702B5
:101900009387170083C6F7FF1387F4FFE39606FE5D
:101910009384E4FF6302070293C7F4FF93D7F74170
:10192000B3F4F40093841400130503001386040039
:10193000EF100018330395009307510113031300B0
:1019400093871700A30F53FF83CAF7FFE3980AFE9C
:10195000130E0B006FF09FD613078007E390E7D6B6
:1019600003260E001307F000130B4E006378C72800
:10197000130710009305F00013174700B356E60253
:10198000E3ECD5FE630A070E13084101930800003B
:101990006F004003930500036358D900930570035B
:1019A0006384470193057005B386D5002300D800F2
:1019B00093051800938818006302070CB356E602DB
:1019C000138805003376E60213574700E39408FCBA
:1019D000E342D0FC630C071C930508006FF01FFE68
:1019E00093080600E39A07EC138706039308160092
:1019F0002300E6002380080093050002630405002D
:101A000093050003834A4101638E0A1A6386040426
:101A1000930751016F00C00093040700630E070293
:101A20009387170083C6F7FF1387F4FFE39606FE3C
:101A30009384E4FF6302070293C7F4FF93D7F7414F
:101A4000B3F4F40093841400130503001386040018
:101A5000EF100006330395009307510113031300A1
:101A600093871700A30F53FF83CAF7FFE3980AFE7B
:101A7000130E0B006FF09FC49305410123800500F6
:101A8000930500026304050093050003834A4101A6
:101A9000638A0A1263860404930751016F00C00031
:101AA00093040700630E07029387170083C6F7FFAE
:101AB0001387F4FFE39606FE9384E4FF63020702B4
:101AC00093C7F4FF93D7F741B3F4F4009384140061
:101AD0001305030013860400EF00907D3303950087
:101AE000930751011303130093871700A30F53FFAC
:101AF00083CAF7FFE3980AFE130E0B006FF01FBCBA
:101B0000032B0E00930B4E0083470B00930A1B0020
:101B1000638C070E638E040413870A006F00C000F5
:101B20009384060063860604130717000346F7FF35
:101B30009386F4FFE31606FE1387E4FF638A06022A
:101B40009344F7FF93D4F44133779700930417003D
:101B5000130503001386040093050002EF0050757F
:101B600083470B0033039500138E0B00E38807B403
:101B700013031300A30FF3FE938A1A0083C7FAFF1F
:101B8000E39807FE138E0B006FF05FB32300F300A2
:101B9000130313006FF09FB283270E00130313008B
:101BA000130E4E00A30FF3FE6FF05FB19386060392
:101BB000930518002300D8006FF05FEC93084101F3
:101BC0006FF05FD19387F4FFE38404D893C4F7FFE9
:101BD00093D4F441B3F797009384170013050300DF
:101BE00013860400EF00D06C33039500130E0B0036
:101BF0006FF0DFAC930806006FF0DFDF1307100013
:101C0000930606006FF05FD81387F4FFE39A04F29F
:101C1000138E0B006FF09FAA130E0B00E38004AA33
:101C2000130503001386040023266101EF005068AA
:101C300033039500032EC1006FF05FA8B70701A022
:101C400023A0A72AB70701A023AEB72813050000D9
:101C50006780000013771500930705001305000047
:101C600063040702370701A003258728370801A06E
:101C7000232AB82893661500370801A013751500AC
:101C80002326C8282324D72813F727006308070230
:101C9000B70601A003A7862813782700630408006D
:101CA00013051000370801A013672700232CB8285C
:101CB000B70501A023A8C52823A4E62893F7C7FFEA
:101CC000638407001305100067800000130101FF03
:101CD0002326110093071000630CF50293050500FD
:101CE00063000502370601A013060612370501A09E
:101CF0009306400013058513EFF09F8E6F000000E0
:101D0000370601A0930510001306061D6FF01FFE95
:101D1000370501A09305400013054512EFF05F8CD5
:101D20006FF0DFFD130101FD23286101232611025D
:101D3000232481022322910223202103232E310117
:101D4000232C4101232A510123267101138B050005
:101D5000634205029307B0006306F51283A60500EF
:101D600013060500370501A013054518EFF05F873E
:101D70006F000000732400FC630E040C370A01A0FE
:101D800083278A2893F71700638E0700B70701A0FF
:101D9000370701A083A747298325C728130500001B
:101DA000E78007009377E4FF6386070A83278A2882
:101DB00093F72700638E0700B70701A0370701A03C
:101DC00083A787298325072913051000E7800700CB
:101DD0009377C4FF6380070883278A2893F7470017
:101DE000638E0700B70701A0370701A083A7C729A3
:101DF0008325472913052000E7800700137484FF1B
:101E0000630A0404370901A0B70401A01309492992
:101E10009384C42893093000930B100083278A28E9
:101E2000B39A3B01B3F7FA00638A07008327C9001E
:101E300083A5C40013850900E780070093CAFAFF51
:101E400033745401938919001309490093844400A1
:101E5000E31604FC8320C1020324810213050B0056
:101E600083244102032901028329C101032A81013C
:101E7000832A4101032B0101832BC10013010103BC
:101E800067800000370501A01305C515130406007F
:101E9000EFF00FF50325040793050B00EFF01FE3A8
:101EA000130101FE2322B1002324C1002326D10007
:101EB0002328E100232AF100232C0101232E110104
:101EC0001301010267800000B70701A083A6472A1B
:101ED000130600083387A600636CE600370501A0EF
:101EE0001305052B3305D50023A2E72A67800000E0
:101EF0001305000067800000B70601A003A7462A6B
:101F0000930500081306070363FEC500B73701A059
:101F100023A807A4B73701A023A407A61305100020
:101F200067800000B70701A09387072B3388E7007D
:101F3000373501A023A2C62A232805A513070706C3
:101F4000E3EAE5FC130101F7B387C7002326110874
:101F50002326710723248107232291072320A10729
:101F6000232EB1052324810823229108232021094F
:101F7000232E3107232C4107232A510723286107E9
:101F800023A2E62A1307200023A4E700B70501A037
:101F9000130780021385070123A0070123A207006E
:101FA00023A6E7001306F0019385451D373C01A0E9
:101FB0002324FCA6EFE04FB6B70501A01306F001FD
:101FC0009385451F13050101EFE00FB5B70501A08B
:101FD000370501A01306F00193854521130505007F
:101FE000EFE08FB39307A0002326F10093072000B2
:101FF0002324F100B70701A0938B0734B73701A062
:10200000138D07A8B71701A0B73D01A0938C073423
:102010009307A00023AEFB64732710C083268100C2
:10202000B73701A023ACE7A423AE07A493070000B1
:102030006354D016930710001304A0002322F1006C
:10204000B73A01A09309700013098000930450006F
:10205000130A10016F00C00283250B001306000352
:1020600013050B00EFE04FAB8327410003278100EE
:10207000938717002322F100634AF71003A4CB656E
:10208000B70701A09385472313071004B73701A0B2
:102090002382E7A6930710001307200423A4FDB4AE
:1020A0001306F001B73701A013050103A382E7A6C9
:1020B000EFE08FA683472101130790056382E71C99
:1020C0009305010313050101EF00502C032B8CA68F
:1020D000932615001306000303270B0013041400B6
:1020E00093050B001305070023A4DDB423203D0353
:1020F00023223D03232C2D0923A02B6723A22B672A
:1021000023AE8B6423A03C6123A09AA6EFE0CFA06E
:1021100083260B0023269B00032645002320D500A1
:1021200083260B0023269500130705002320D500E6
:1021300083268CA623A64601E31006F283278B0094
:10214000130660002326C50013062000638CC71207
:10215000930530002324B500638C071293054000DB
:102160006394B7002324C50083A7060093062001CB
:102170002326D7002320F70083274100032781006F
:10218000938717002322F100E35AF7EEB73701A037
:1021900003A787A583A7C7A5F32610C03387E6400A
:1021A000B3B5E600373601A0B307F04037450F005E
:1021B00013050524B387B74093050600B387A7022C
:1021C00023AA05A62328D6A637E6F505130606108A
:1021D00093060000B335A7023305A702B385B70005
:1021E000EF008042B73701A023A8A7B423AAB7B451
:1021F000130605009384050013090500639E050876
:1022000013044006636AA408832781009306000034
:10221000338587028327C1009389F7FF2326310185
:102220009355F541EF00403E93571540B387A70003
:102230002324F100E39E09DC63008906B73701A07F
:1022400003A587A78320C1080324810883244108AC
:10225000032901088329C107032A8107832A41072B
:10226000032B0107832BC106032C8106832C410617
:10227000032D0106832DC1051301010967800000AC
:102280006F000000930710002324F5006FF0DFEDCE
:10229000232405006FF05FED8329810037440F0090
:1022A00013040424338489021386090093D6F94168
:1022B0009385040013050900EF000035B70701A05E
:1022C00023A8A73223AAB732938604009359F44176
:1022D000130609001305040093850900EF00C032BE
:1022E0001306D06DB3049602B70701A023ACA73242
:1022F00023AEB7321305040093850900B3362603D5
:1023000033062603B386D400EF000030B73701A0B0
:1023100023ACA7A623AEB7A66FF0DFF2130101FF2F
:1023200023229100B73401A0232021018327050037
:1023300003A984A6232481001306000313040500C7
:10234000930509001385070023261100EFD0DFFC59
:1023500083260400130750002326E4002320D50021
:1023600083260900373601A0032606A62320D500C0
:1023700083A684A6832545002326E5001307C6000F
:1023800023A6E600638605028325040013050400E6
:1023900013060003EFD05FF88320C10003248100FF
:1023A000832441000329010013010101678000001B
:1023B00003278400930560002326B50093052000C1
:1023C000930705006304B7021305300023A4A70098
:1023D000130510006304A7046306070413064000F6
:1023E000631AC70023A4B7006F00C00013071000D2
:1023F0002324E50003A706008320C10003248100F5
:102400009306200123A6D70023A0E70083244100E0
:102410000329010013010101678000001307400632
:10242000E35AC7FC23A407006FF0DFFCB73701A015
:1024300003C747A6930710046304F70067800000F2
:1024400083270500373701A0032707A69387970046
:10245000B387E7402320F50067800000373701A0ED
:10246000832787A66388070083A707002320F5003A
:10247000832787A6373701A0032707A61307C700BE
:1024800023A6E70067800000B73701A083C747A6EF
:10249000373701A0832687B49387F7FB93B71700DC
:1024A000B3E7D7002324F7B4B73701A013072004FC
:1024B000A382E7A667800000B73701A013071004C6
:1024C0002382E7A6B73701A023A407B467800000E2
:1024D000930720006300F5041307300023A0E500F4
:1024E00013071000630CE5006302050213074000A8
:1024F0006318E50223A0F50067800000B73701A04C
:1025000003A707A693074006E3D8E7FE23A005002C
:10251000678000009307100023A0F500678000008B
:102520006780000013052500B305B5002320B60021
:1025300067800000130756001308800C3308070358
:1025400013162600931727003305F5002320D50026
:10255000232CE5062322D500B307C800B387F50076
:1025600083A6070123AAE70023ACE7001387160020
:1025700023A8E70083270500B3850501B385C500BF
:1025800037160000B305B60023AAF5FA130750006A
:10259000B73701A023A0E7A6678000006306B50057
:1025A0001305000067800000B73701A02382A7A6AB
:1025B00013051000678000000347250083C735001E
:1025C000630CF702130101FF23261100EF00005CEA
:1025D00093070000635AA000B73701A01307A000BB
:1025E00023A0E7A6930710008320C10013850700EE
:1025F00013010101678000006F0000001305E5FF73
:1026000013351500678000009387060093080600C5
:102610001303050013880500639C060C63F2C512C2
:10262000370701006360E622B70700016362F642E4
:102630001357860193078001B70601A0938606020F
:102640003307D70003470700B307F700130700025B
:102650003307F740630C07003398E500B357F500E4
:10266000B318E60033E807013313E50013D6080179
:102670003355C8029396080193D606019357030178
:102680003377C802B385A602131707013368F70032
:10269000637CB800330818019307F5FF63641801E1
:1026A000636CB83E138507003308B8403357C8023F
:1026B00013130301135303013378C802B386E602F0
:1026C0001318080133686800637CD8003388080158
:1026D0009307F7FF636418191307E7FF6370D818AF
:1026E000131505013365E5009305000067800000C0
:1026F00063EED510B707010063E0F612B7070001DB
:1027000063E6F63293D8860113088001B70701A06B
:1027100093870702B387F80003C7070093070002F7
:10272000330707013383E7406312031463E8B632CB
:102730003335C50013451500930500006780000080
:102740006316060013071000B358C70237070100CD
:1027500063EEE80CB707000163E6F82E13D7880193
:1027600093078001B70601A0938606023307D700BE
:1027700083460700930F0002B386F600B38FDF4055
:10278000639E0F1C939E08013387154113DF0801D8
:1027900093DE0E0193051000935703013355E703B1
:1027A0003377E703B306D50313170701B367F700C1
:1027B00063FCD700B38717011307F5FF63E4170124
:1027C00063E2D72E13050700B387D74033D6E7035C
:1027D0001313030113530301B3F7E703B30ED60337
:1027E00093970701B3E7670063FCD701B387F8004D
:1027F0001307F6FF63E817071306E6FF63F4D7072E
:10280000131505013365C5006780000093050000BE
:1028100013050000678000009307F00F63FED720C8
:1028200093D88600130880006FF05FEE9306F00FD8
:1028300013870800E3F816F313D788009307800086
:102840006FF05FF29306F00F13070600E3F6C6DEA3
:1028500013578600930780006FF01FDE1387070071
:102860006FF01FE8130607006FF09FF9B357E600FB
:10287000B3966600B3E6D700B3D8E50013DF0601D0
:10288000B3DEE803139E0601135E0E013398650064
:102890003357E50033680701935708013316660084
:1028A000B3F8E803B305DE0393980801B3E7F80033
:1028B00063FAB700B387D7001387FEFF63FED71A0A
:1028C000930E0700B387B74033D7E7031318080107
:1028D00013580801B3F7E703B308EE029397070113
:1028E000B3E5070163FA1501B385D5009307F7FF38
:1028F00063FCD51613870700939E0E01370F010066
:10290000B3EEEE009307FFFF33F7FE0013D80E017E
:10291000B377F60013560601330EF702B38515415F
:102920003307C70293560E01B307F8023307F700C7
:102930003387E6003306C8026374F7003306E60106
:10294000135807013306C80063ECC50C638AC50A37
:1029500013850E009305000067800000B398F8010E
:1029600033D6D50013DF0801335EE603B357D50035
:10297000939E08013397F50193DE0E0133E7E700DC
:10298000935507013313F501B376E603B387CE03FE
:1029900093960601B3E6B60063FEF600B386160111
:1029A0001306FEFF63E6160F63F4F60E130EEEFF3A
:1029B000B3861601B386F640B3D7E60313180701B2
:1029C00013580801B3F6E6033386FE021397060197
:1029D00033670701637EC700330717019386F7FF4C
:1029E0006364170B6372C70A9387E7FF3307170106
:1029F00093150E013307C740B3E5F5006FF0DFD93B
:102A0000B70701009387F7FF3377F700337EFE00A7
:102A100013170701B31765003307C701E3FAE7F29D
:102A20001385FEFF930500006780000093D8060120
:102A3000130800016FF09FCD938806001308000073
:102A40006FF0DFCC13D70801930700016FF09FD11F
:102A500013570601930700016FF01FBE9305000096
:102A60001305100067800000E3F615E91307E7FF80
:102A7000B385D5006FF05FE8E3F4B7E4938EEEFF23
:102A8000B387D7006FF01FE4938706006FF05FF6FF
:102A9000130E06006FF01FF21305E5FF330818014F
:102AA0006FF09FC01305E5FFB38717016FF0DFD10B
:102AB0001303F00013070500637EC3029377F7004A
:102AC0006390070A63920508937606FF1376F60073
:102AD000B386E6002320B7002322B7002324B700E3
:102AE0002326B70013070701E366D7FE6314060029
:102AF00067800000B306C34093962600970200004B
:102B0000B38656006780C6002307B700A306B70048
:102B10002306B700A305B7002305B700A304B70039
:102B20002304B700A303B7002303B700A302B70031
:102B30002302B700A301B7002301B700A300B70029
:102B40002300B7006780000093F5F50F939685008A
:102B5000B3E5D50093960501B3E5D5006FF0DFF638
:102B60009396270097020000B386560093820000D8
:102B7000E78006FA93800200938707FF3307F74048
:102B80003306F600E378C3F66FF0DFF33367B50082
:102B90009303F0FF1377370063100710B7877F7F29
:102BA0009387F7F70326050083A60500B372F600A6
:102BB0003363F600B382F200B3E2620063927210F4
:102BC0006316D6080326450083A64500B372F600B7
:102BD0003363F600B382F200B3E26200639E720CCC
:102BE0006316D6060326850083A68500B372F60019
:102BF0003363F600B382F200B3E262006398720CB2
:102C00006316D6040326C50083A6C500B372F6007A
:102C10003363F600B382F200B3E262006392720C97
:102C20006316D6020326050183A60501B372F600DA
:102C30003363F600B382F200B3E26200639C720A6F
:102C40001305450193854501E30ED6F413170601DC
:102C500093970601631EF7001357060193D70601E9
:102C60003305F7409375F50F639005026780000008
:102C70001357070193D707013305F7409375F50FF5
:102C800063940500678000001377F70F93F7F70F41
:102C90003305F740678000000346050083C6050042
:102CA00013051500938515006314D600E31606FE80
:102CB0003305D64067800000130545009385450025
:102CC000E31CD6FC13050000678000001305850097
:102CD00093858500E312D6FC130500006780000091
:102CE0001305C5009385C500E318D6FA1305000047
:102CF000678000001305050193850501E31ED6F8E2
:082D00001305000067800000CC
:102D0800130101FF23261100EFF08F9E631E0500BB
:102D1800130E10000F100000730000008320C10084
:102D28001301010167800000136E05000F100000F9
:082D3800730000006FF09FFE24
:02000004A00159
:100000005265676973746572206F7074696F6E20D2
:0F001000202020202053656C65637465642E00EA
:10002000000102020303030304040404040404049F
:100030000505050505050505050505050505050570
:100040000606060606060606060606060606060650
:100050000606060606060606060606060606060640
:100060000707070707070707070707070707070720
:100070000707070707070707070707070707070710
:100080000707070707070707070707070707070700
:1000900007070707070707070707070707070707F0
:1000A00008080808080808080808080808080808D0
:1000B00008080808080808080808080808080808C0
:1000C00008080808080808080808080808080808B0
:1000D00008080808080808080808080808080808A0
:1000E0000808080808080808080808080808080890
:1000F0000808080808080808080808080808080880
:10010000080808080808080808080808080808086F
:10011000080808080808080808080808080808085F
:10012000730000000D0A5465737420706173736569
:1001300064210D0A256300000D0A5465737420665E
:1001400061696C6564207769746820256420657234
:10015000726F7225732E0D0A25630000556E68615B
:100160006E646C6564204543414C4C3B2061737365
:10017000756D696E67206F7263612D746573740DA0
:100180000A000000556E68616E646C656420696CDD
:100190006C6567616C20696E737472756374696FE6
:1001A0006E20403078253038582E202043617573FA
:1001B000653A203078253038582C20496E73747297
:1001C000756374696F6E3A203078253038580D0A9F
:1001D000000000004448525953544F4E452050529D
:1001E0004F4752414D2C20534F4D452053545249B7
:1001F0004E4700004448525953544F4E45205052E8
:100200004F4752414D2C20312753542053545249CB
:100210004E4700005265676973746572206F707491
:10022000696F6E20204E6F742073656C6563746512
:10023000642E00004448525953544F4E45205052AA
:100240004F4752414D2C2032274E4420535452499F
:040250004E47000015
:100254001000000000000000037A5200017C01013C
:100264001B0C020010000000180000009823FFFF80
:08027400A804000000000000D6
:04027C00040000007A
:04000005A000000057
:00000001FF
